{
  "_format": "hh-sol-artifact-1",
  "contractName": "Voting",
  "sourceName": "contracts/Voting.sol",
  "abi": [
    {
      "inputs": [],
      "stateMutability": "nonpayable",
      "type": "constructor"
    },
    {
      "anonymous": false,
      "inputs": [
        {
          "indexed": true,
          "internalType": "uint256",
          "name": "candidateId",
          "type": "uint256"
        },
        {
          "indexed": false,
          "internalType": "string",
          "name": "name",
          "type": "string"
        }
      ],
      "name": "CandidateAdded",
      "type": "event"
    },
    {
      "anonymous": false,
      "inputs": [
        {
          "indexed": true,
          "internalType": "address",
          "name": "voter",
          "type": "address"
        },
        {
          "indexed": true,
          "internalType": "uint256",
          "name": "candidateId",
          "type": "uint256"
        }
      ],
      "name": "VoteCast",
      "type": "event"
    },
    {
      "inputs": [
        {
          "internalType": "string",
          "name": "name",
          "type": "string"
        }
      ],
      "name": "createCandidate",
      "outputs": [],
      "stateMutability": "nonpayable",
      "type": "function"
    },
    {
      "inputs": [],
      "name": "getCandidateList",
      "outputs": [
        {
          "components": [
            {
              "internalType": "string",
              "name": "name",
              "type": "string"
            },
            {
              "internalType": "uint256",
              "name": "voteCount",
              "type": "uint256"
            }
          ],
          "internalType": "struct Voting.Candidate[]",
          "name": "",
          "type": "tuple[]"
        }
      ],
      "stateMutability": "view",
      "type": "function"
    },
    {
      "inputs": [],
      "name": "getWinner",
      "outputs": [
        {
          "internalType": "string",
          "name": "winnerName",
          "type": "string"
        }
      ],
      "stateMutability": "view",
      "type": "function"
    },
    {
      "inputs": [
        {
          "internalType": "address",
          "name": "",
          "type": "address"
        }
      ],
      "name": "hasVoted",
      "outputs": [
        {
          "internalType": "bool",
          "name": "",
          "type": "bool"
        }
      ],
      "stateMutability": "view",
      "type": "function"
    },
    {
      "inputs": [],
      "name": "owner",
      "outputs": [
        {
          "internalType": "address",
          "name": "",
          "type": "address"
        }
      ],
      "stateMutability": "view",
      "type": "function"
    },
    {
      "inputs": [
        {
          "internalType": "uint256",
          "name": "candidateIndex",
          "type": "uint256"
        }
      ],
      "name": "vote",
      "outputs": [],
      "stateMutability": "nonpayable",
      "type": "function"
    }
  ],
  "bytecode": "0x608060405234801561001057600080fd5b50336000806101000a81548173ffffffffffffffffffffffffffffffffffffffff021916908373ffffffffffffffffffffffffffffffffffffffff16021790555061123a806100606000396000f3fe608060405234801561001057600080fd5b50600436106100625760003560e01c80630121b93f1461006757806309eef43e146100835780635fba7a56146100b35780638da5cb5b146100cf5780638e7ea5b2146100ed578063fdbc40061461010b575b600080fd5b610081600480360381019061007c9190610799565b610129565b005b61009d60048036038101906100989190610824565b6102d8565b6040516100aa919061086c565b60405180910390f35b6100cd60048036038101906100c891906108ec565b6102f8565b005b6100d76104c1565b6040516100e49190610948565b60405180910390f35b6100f56104e5565b60405161010291906109f3565b60405180910390f35b61011361065e565b6040516101209190610b6d565b60405180910390f35b600260003373ffffffffffffffffffffffffffffffffffffffff1673ffffffffffffffffffffffffffffffffffffffff16815260200190815260200160002060009054906101000a900460ff16156101b6576040517f08c379a00000000000000000000000000000000000000000000000000000000081526004016101ad90610bdb565b60405180910390fd5b60018054905081106101fd576040517f08c379a00000000000000000000000000000000000000000000000000000000081526004016101f490610c47565b60405180910390fd5b6001600260003373ffffffffffffffffffffffffffffffffffffffff1673ffffffffffffffffffffffffffffffffffffffff16815260200190815260200160002060006101000a81548160ff021916908315150217905550600180828154811061026a57610269610c67565b5b9060005260206000209060020201600101600082825461028a9190610cc5565b92505081905550803373ffffffffffffffffffffffffffffffffffffffff167fa36cc2bebb74db33e9f88110a07ef56e1b31b24b4c4f51b54b1664266e29f45b60405160405180910390a350565b60026020528060005260406000206000915054906101000a900460ff1681565b60008054906101000a900473ffffffffffffffffffffffffffffffffffffffff1673ffffffffffffffffffffffffffffffffffffffff163373ffffffffffffffffffffffffffffffffffffffff1614610386576040517f08c379a000000000000000000000000000000000000000000000000000000000815260040161037d90610d45565b60405180910390fd5b600082829050116103cc576040517f08c379a00000000000000000000000000000000000000000000000000000000081526004016103c390610dd7565b60405180910390fd5b6001604051806040016040528084848080601f016020809104026020016040519081016040528093929190818152602001838380828437600081840152601f19601f8201169050808301925050505050505081526020016000815250908060018154018082558091505060019003906000526020600020906002020160009091909190915060008201518160000190816104669190611032565b50602082015181600101555050600180805490506104849190611104565b7fe83b2a43e7e82d975c8a0a6d2f045153c869e111136a34d1889ab7b598e396a383836040516104b5929190611174565b60405180910390a25050565b60008054906101000a900473ffffffffffffffffffffffffffffffffffffffff1681565b606060006001805490501161052f576040517f08c379a0000000000000000000000000000000000000000000000000000000008152600401610526906111e4565b60405180910390fd5b60008060005b6001805490508110156105a857826001828154811061055757610556610c67565b5b906000526020600020906002020160010154111561059b576001818154811061058357610582610c67565b5b90600052602060002090600202016001015492508091505b8080600101915050610535565b50600181815481106105bd576105bc610c67565b5b906000526020600020906002020160000180546105d990610e55565b80601f016020809104026020016040519081016040528092919081815260200182805461060590610e55565b80156106525780601f1061062757610100808354040283529160200191610652565b820191906000526020600020905b81548152906001019060200180831161063557829003601f168201915b50505050509250505090565b60606001805480602002602001604051908101604052809291908181526020016000905b8282101561075057838290600052602060002090600202016040518060400160405290816000820180546106b590610e55565b80601f01602080910402602001604051908101604052809291908181526020018280546106e190610e55565b801561072e5780601f106107035761010080835404028352916020019161072e565b820191906000526020600020905b81548152906001019060200180831161071157829003601f168201915b5050505050815260200160018201548152505081526020019060010190610682565b50505050905090565b600080fd5b600080fd5b6000819050919050565b61077681610763565b811461078157600080fd5b50565b6000813590506107938161076d565b92915050565b6000602082840312156107af576107ae610759565b5b60006107bd84828501610784565b91505092915050565b600073ffffffffffffffffffffffffffffffffffffffff82169050919050565b60006107f1826107c6565b9050919050565b610801816107e6565b811461080c57600080fd5b50565b60008135905061081e816107f8565b92915050565b60006020828403121561083a57610839610759565b5b60006108488482850161080f565b91505092915050565b60008115159050919050565b61086681610851565b82525050565b6000602082019050610881600083018461085d565b92915050565b600080fd5b600080fd5b600080fd5b60008083601f8401126108ac576108ab610887565b5b8235905067ffffffffffffffff8111156108c9576108c861088c565b5b6020830191508360018202830111156108e5576108e4610891565b5b9250929050565b6000806020838503121561090357610902610759565b5b600083013567ffffffffffffffff8111156109215761092061075e565b5b61092d85828601610896565b92509250509250929050565b610942816107e6565b82525050565b600060208201905061095d6000830184610939565b92915050565b600081519050919050565b600082825260208201905092915050565b60005b8381101561099d578082015181840152602081019050610982565b60008484015250505050565b6000601f19601f8301169050919050565b60006109c582610963565b6109cf818561096e565b93506109df81856020860161097f565b6109e8816109a9565b840191505092915050565b60006020820190508181036000830152610a0d81846109ba565b905092915050565b600081519050919050565b600082825260208201905092915050565b6000819050602082019050919050565b600082825260208201905092915050565b6000610a5d82610963565b610a678185610a41565b9350610a7781856020860161097f565b610a80816109a9565b840191505092915050565b610a9481610763565b82525050565b60006040830160008301518482036000860152610ab78282610a52565b9150506020830151610acc6020860182610a8b565b508091505092915050565b6000610ae38383610a9a565b905092915050565b6000602082019050919050565b6000610b0382610a15565b610b0d8185610a20565b935083602082028501610b1f85610a31565b8060005b85811015610b5b5784840389528151610b3c8582610ad7565b9450610b4783610aeb565b925060208a01995050600181019050610b23565b50829750879550505050505092915050565b60006020820190508181036000830152610b878184610af8565b905092915050565b7f596f7520616c726561647920766f746564000000000000000000000000000000600082015250565b6000610bc560118361096e565b9150610bd082610b8f565b602082019050919050565b60006020820190508181036000830152610bf481610bb8565b9050919050565b7f43616e64696461746520446f65736e2774206578697374000000000000000000600082015250565b6000610c3160178361096e565b9150610c3c82610bfb565b602082019050919050565b60006020820190508181036000830152610c6081610c24565b9050919050565b7f4e487b7100000000000000000000000000000000000000000000000000000000600052603260045260246000fd5b7f4e487b7100000000000000000000000000000000000000000000000000000000600052601160045260246000fd5b6000610cd082610763565b9150610cdb83610763565b9250828201905080821115610cf357610cf2610c96565b5b92915050565b7f4f6e6c79206f776e65722043616e206163636573732074686973000000000000600082015250565b6000610d2f601a8361096e565b9150610d3a82610cf9565b602082019050919050565b60006020820190508181036000830152610d5e81610d22565b9050919050565b7f4e616d6520726571756972656420746f2063726561746520616464206120636160008201527f6e64696461746500000000000000000000000000000000000000000000000000602082015250565b6000610dc160278361096e565b9150610dcc82610d65565b604082019050919050565b60006020820190508181036000830152610df081610db4565b9050919050565b7f4e487b7100000000000000000000000000000000000000000000000000000000600052604160045260246000fd5b7f4e487b7100000000000000000000000000000000000000000000000000000000600052602260045260246000fd5b60006002820490506001821680610e6d57607f821691505b602082108103610e8057610e7f610e26565b5b50919050565b60008190508160005260206000209050919050565b60006020601f8301049050919050565b600082821b905092915050565b600060088302610ee87fffffffffffffffffffffffffffffffffffffffffffffffffffffffffffffffff82610eab565b610ef28683610eab565b95508019841693508086168417925050509392505050565b6000819050919050565b6000610f2f610f2a610f2584610763565b610f0a565b610763565b9050919050565b6000819050919050565b610f4983610f14565b610f5d610f5582610f36565b848454610eb8565b825550505050565b600090565b610f72610f65565b610f7d818484610f40565b505050565b5b81811015610fa157610f96600082610f6a565b600181019050610f83565b5050565b601f821115610fe657610fb781610e86565b610fc084610e9b565b81016020851015610fcf578190505b610fe3610fdb85610e9b565b830182610f82565b50505b505050565b600082821c905092915050565b600061100960001984600802610feb565b1980831691505092915050565b60006110228383610ff8565b9150826002028217905092915050565b61103b82610963565b67ffffffffffffffff81111561105457611053610df7565b5b61105e8254610e55565b611069828285610fa5565b600060209050601f83116001811461109c576000841561108a578287015190505b6110948582611016565b8655506110fc565b601f1984166110aa86610e86565b60005b828110156110d2578489015182556001820191506020850194506020810190506110ad565b868310156110ef57848901516110eb601f891682610ff8565b8355505b6001600288020188555050505b505050505050565b600061110f82610763565b915061111a83610763565b925082820390508181111561113257611131610c96565b5b92915050565b82818337600083830152505050565b6000611153838561096e565b9350611160838584611138565b611169836109a9565b840190509392505050565b6000602082019050818103600083015261118f818486611147565b90509392505050565b7f4e6f2063616e6469646174657320616464656400000000000000000000000000600082015250565b60006111ce60138361096e565b91506111d982611198565b602082019050919050565b600060208201905081810360008301526111fd816111c1565b905091905056fea26469706673582212204830a85e43323619a3aad72e3ae1cd08df4b2a34fc7332a7366790ce8a1296ce64736f6c63430008180033",
  "linkReferences": {},
  "deployedLinkReferences": {}
}